:1000000014C077C08BC02AC029C064C027C090C06C
:1000100025C024C023C022C021C020C01FC01EC0D4
:100020001DC01CC01BC01AC019C011241FBECFEDBB
:10003000CDBF10E0A0E6B0E0E2ECF4E002C0059035
:100040000D92AC36B107D9F710E0ACE6B0E001C0D4
:100050001D92A937B107E1F7B2D131C2D1CF2091BA
:100060007700309178003DBD2CBDE199FECF1CBAE0
:100070008EBB6DBBE29AE19A0895CF93DF93C82FB0
:10008000D62F60E0ECDF8C2F8F5F6D2FE8DFDF91E4
:10009000CF91089520917700309178003DBD2CBD1F
:1000A000E199FECF8EBB8CB38F5F8CBB8DB308956F
:1000B0001F93CF93DF93182FEDDFD82F80E0C82F49
:1000C000812F8F5FE7DF90E08C2B9D2BDF91CF910D
:1000D0001F9108951F920F920FB60F9211248F93C4
:1000E00081E080936E008F910F900FBE0F901F9054
:1000F00018951F920F920FB60F9211248F939F9312
:1001000080917700909178009DBD8CBD1BBE9F9122
:100110008F910F900FBE0F901F9018951F920F9206
:100120000FB60F9211240F900FBE0F901F901895CD
:100130001F920F920FB60F9211242F933F934F935C
:100140005F936F937F938F939F93AF93BF93CF935F
:10015000EF93FF9380917700909178009DBD8CBDC7
:10016000CCB18C2F9ED091E0CD3009F090E081E0B1
:10017000CA3009F080E0892B90E040916B0021E0CB
:1001800030E0403211F020E030E0282339232115FF
:10019000310509F057C040916B0021E030E040325A
:1001A00011F420E030E082239323009709F44AC041
:1001B00080916C0090916D0088D080916B0071D01F
:1001C00080916B00883751F0893718F4843699F59F
:1001D00020C0893761F08A3771F512C080916C00B8
:1001E00090916D00909376008093750024C080916B
:1001F0006C0090916D0090937400809373001BC00D
:1002000080916C0090916D009093720080937100CA
:1002100012C080916C0090916D00809590959093A4
:100220006D0080936C0080916C0090916D009093B4
:1002300078008093770010926D0010926C0080E23D
:1002400080936B0080916B00803219F4C0936B0037
:1002500016C080916C0090916D006AE070E009D149
:1002600090936D0080936C0080916C0090916D0074
:10027000C0978C0F911D90936D0080936C00FF913F
:10028000EF91CF91BF91AF919F918F917F916F919E
:100290005F914F913F912F910F900FBE0F901F9044
:1002A00018958CB95E9BFECF5E9A0895CF93DF932D
:1002B000EC018991F6DF88818823D9F78AE0F1DFA4
:1002C0008DE0EFDFDF91CF9108950F931F93CF93D0
:1002D000DF939C0160E177E2DED0462F862F90E02D
:1002E00060EF78EDC6D0280F391FC90168EE73E0C2
:1002F000D2D0862FC62F90E068EE73E0BAD0281BCC
:10030000390BC90164E670E0C6D0862FD62F90E085
:1003100064E670E0AED0281B390BC9016AE070E0DA
:10032000BAD0062F182F842F805DBBDF8C2F805D05
:10033000B8DF8D2F805DB5DF802F805DB2DF812F2C
:10034000805DAFDFDF91CF911F910F9108958FB93D
:100350008BE101C08DB9769BFDCF80E48EB98FB162
:100360000895C4988BE0F3DF80E0F1DF80E0EFDFF9
:10037000C49A90E0AADF0895CF93DF93809175002F
:1003800090917600A2DFC0E6D0E0CE018FDF8091B1
:1003900073009091740099DFCE0188DF8091710025
:1003A0009091720092DFCE0181DF80917700909171
:1003B00078008BDFCE017ADFDF91CF91089583E063
:1003C0008ABB8FED87BB82E781BB1BBA80E188BB0C
:1003D00084E682BB15BE1BBE8AE18DB980E48EB96E
:1003E00085E08EBD80E889BF12B889E189B91BB864
:1003F00088E98AB986E083B982E690E057DFBCDFFE
:1004000010926D0010926C0080E280936B0085B7B3
:100410008F7A806485BF789480E69AEE9DBD8CBD0E
:100420009093780080937700C0E480916E008823D9
:10043000E1F387E690E03ADFCBBF85B7806285BF06
:10044000889585B78F7D85BF89E690E02FDF809105
:1004500075009091760039DF1092700010926F0055
:1004600010926E0080917700909178009DBD8CBDB8
:10047000DCCF5527002480FF02C0060E571F660FF1
:10048000771F6115710521F096958795009799F76B
:10049000952F802D0895AA1BBB1B51E107C0AA1FF1
:1004A000BB1FA617B70710F0A61BB70B881F991F15
:1004B0005A95A9F780959095BC01CD010895F894BF
:0204C000FFCF6C
:0C04C2002000706F6F70007A0070002046
:00000001FF
