:1000000014C0AFC0C5C02AC029C09CC027C0D7C07B
:1000100025C024C023C022C021C020C01FC01EC0D4
:100020001DC01CC01BC01AC019C011241FBECFEDBB
:10003000CDBF10E0A0E6B0E0E2ECF5E002C0059034
:100040000D92AA36B107D9F710E0AAE6B0E001C0D8
:100050001D92A337B107E1F73FD2B1C2D1CFCF9301
:10006000C82F88B318BA8BE01BD18C2F19D18C2FD5
:1000700017D1C49ACF9108951F93CF93DF930F9216
:10008000CDB7DEB7182F88B318BA8AE0698308D1D4
:10009000812F06D16981862F03D1C49A0F90DF91F9
:1000A000CF911F91089580E260916C00E5DF83E2BB
:1000B00062E3E2DF85E26FE0DFDF87E26FEFDCDF44
:1000C0008AE260E9D9DF8DE26AE0D6DF0895209107
:1000D0006E0030916F003DBD2CBDE199FECF1CBA82
:1000E0008EBB6DBBE29AE19A0895CF93DF93C82F40
:1000F000D62F672FECDF8C2F8F5F6D2FE8DFDF911E
:10010000CF91089520916E0030916F003DBD2CBDC0
:10011000E199FECF8EBB8CB38F5F8CBB8DB30895FE
:100120001F93CF93DF93182FEDDFD82F80E0C82FD8
:10013000812F8F5FE7DF90E08C2B9D2BDF91CF919C
:100140001F9108951F920F920FB60F9211248F9353
:1001500081E080936B008F910F900FBE0F901F90E6
:1001600018951F920F920FB60F9211248F939F93A1
:1001700080916E0090916F009DBD8CBD10926B00C0
:100180001BBE9F918F910F900FBE0F901F901895DF
:100190001F920F920FB60F9211248F939F9380910D
:1001A0006E0090916F009DBD8CBD10926B001BBEC8
:1001B0009F918F910F900FBE0F901F9018951F92D7
:1001C0000F920FB60F9211248F939F9380916E0020
:1001D00090916F009DBD8CBD8CB180936A009F9102
:1001E0008F910F900FBE0F901F9018958CB95E9B4A
:1001F000FECF5E9A0895CF93DF93EC018991F6DFED
:1002000088818823D9F78AE0F1DF8DE0EFDFDF9185
:10021000CF9108950F931F93CF93DF939C0160E1DB
:1002200077E2B9D1462F862F90E060EF78EDA1D12B
:10023000280F391FC90168EE73E0ADD1862FC62F94
:1002400090E068EE73E095D1281B390BC90164E694
:1002500070E0A1D1862FD62F90E064E670E089D1BE
:10026000281B390BC9016AE070E095D1062F182FC1
:10027000842F805DBBDF8C2F805DB8DF8D2F805D8C
:10028000B5DF802F805DB2DF812F805DAFDF8AE038
:10029000ADDF8DE0ABDFDF91CF911F910F9108951E
:1002A0008FB98BE101C08DB9769BFDCF80E48EB90B
:1002B0008FB1089580E034DF90936D0080936C00DF
:1002C00082E02EDF90936F0080936E0080916C002F
:1002D00090916D009FDF80916E0090916F008095EE
:1002E000909598DF089586E990E090936D00809353
:1002F0006C0080E69AEE90936F0080936E0080E031
:1003000066E970E0F2DE60916E0070916F0082E04D
:10031000ECDE0895CF93C0916A0010926A008C2F92
:1003200065DF21E0CD3009F020E081E0CA3009F03E
:1003300080E0282B30E08091690061E070E080323D
:1003400011F060E070E0A9014623572341155105E3
:1003500009F0C0C041E050E0803211F440E050E0CC
:10036000242335232115310509F44FC0823709F4C0
:1003700042C0833730F4823699F1843609F040C0A8
:1003800014C0843719F08737D9F52FC060917000F9
:100390007091710080E0A9DE8091700090917100F1
:1003A00090936D0080936C002BC0809170009091B1
:1003B00071008095909590936F0080936E0026EF6A
:1003C0008931920730F088E196EF90936F00809327
:1003D0006E0060916E0070916F0082E086DE10C04A
:1003E00080917000809372000BC0809170006091CA
:1003F000720042DE05C08091700031DE90E00ADFBD
:10040000109271001092700062C021E030E0C73796
:1004100011F020E030E041E050E0C23611F040E061
:1004200050E0422B532B21E030E0C23711F020E0A6
:1004300030E0422B532B21E0C43609F020E091E05C
:10044000C43709F090E0292B30E0242B352B2623EC
:1004500037232115310519F0C09369003BC021E015
:1004600030E0823711F020E030E041E050E08737A3
:1004700011F040E050E0422B532B21E030E0823677
:1004800011F020E030E0242B352B41E0843609F0D8
:1004900040E091E0843709F090E0942B892F90E0C0
:1004A000822B932B009799F08C2F80538A3090F4F5
:1004B00080917000909171006AE070E05AD08C0FCA
:1004C000911DC097909371008093700003C080E2EB
:1004D00080936900CF91089583E08ABB8FED87BB3D
:1004E00082E781BB1BBA80E188BB85E682BB15BE73
:1004F0001BBE8AE18DB980E48EB912B889E189B951
:100500001BB888E98AB986E083B985B7806585BF5D
:100510008FE0F8DD8A3A09F0E6DECCDEC4DD85E066
:100520008EBD80916E0090916F009DBD8CBD80E866
:1005300089BF949A789480E690E05DDEC0EC80916B
:100540006B00882381F087E690E055DEACDDCBBF01
:1005500082B312BA85B7806285BF889585B78F7DD3
:1005600085BFA8DE949A80916A00882341F3D2DE89
:10057000E6CF5527002480FF02C0060E571F660FE6
:10058000771F6115710521F096958795009799F76A
:10059000952F802D0895AA1BBB1B51E107C0AA1FF0
:1005A000BB1FA617B70710F0A61BB70B881F991F14
:1005B0005A95A9F780959095BC01CD010895F894BE
:0205C000FFCF6B
:0A05C200526561647921007A00207F
:00000001FF
