S015000057616B652D6F6E2D5368616B652E7372656364
S113000014C077C08DC02AC029C064C027C092C064
S113001025C024C023C022C021C020C01FC01EC0D0
S11300201DC01CC01BC01AC019C011241FBECFEDB7
S1130030CDBF10E0A0E6B0E0E0EEF5E002C0059030
S11300400D92AA36B107D9F710E0AAE6B0E001C0D4
S11300501D92A837B107E1F744D2C0C2D1CF209195
S11300607600309177003DBD2CBDE199FECF1CBADE
S11300708EBB6DBBE29AE19A0895CF93DF93C82FAC
S1130080D62F672FECDF8C2F8F5F6D2FE8DFDF918A
S1130090CF91089520917600309177003DBD2CBD1D
S11300A0E199FECF8EBB8CB38F5F8CBB8DB308956B
S11300B01F93CF93DF93182FEDDFD82F80E0C82F45
S11300C0812F8F5FE7DF90E08C2B9D2BDF91CF9109
S11300D01F9108951F920F920FB60F9211248F93C0
S11300E081E080936D008F910F900FBE0F901F9051
S11300F018951F920F920FB60F9211248F939F930E
S113010080917600909177009DBD8CBD10926D001A
S11301101BBE9F918F910F900FBE0F901F9018954B
S11301201F920F920FB60F9211240F900FBE0F90D3
S11301301F9018951F920F920FB60F9211248F9350
S11301409F9380917600909177009DBD8CBD8CB17A
S113015080936A009F918F910F900FBE0F901F9014
S113016018958CB95E9BFECF5E9A0895CF93DF936A
S1130170EC018991F6DF88818823D9F78AE0F1DFE1
S11301808DE0EFDFDF91CF9108950F931F93CF930D
S1130190DF939C0160E177E20DD2462F862F90E039
S11301A060EF78EDF5D1280F391FC90168EE73E0CF
S11301B001D2862FC62F90E068EE73E0E9D1281BA8
S11301C0390BC90164E670E0F5D1862FD62F90E093
S11301D064E670E0DDD1281B390BC9016AE070E0E8
S11301E0E9D1062F182F842F805DBBDF8C2F805D13
S11301F0B8DF8D2F805DB5DF802F805DB2DF812F6A
S1130200805DAFDFDF91CF911F910F9108958FB97A
S11302108BE101C08DB9769BFDCF80E48EB98FB19F
S11302200895C4988BE0F3DF80E0F1DF80E0EFDF36
S1130230C49A90E0AADF089580E03ADF90937500B5
S11302408093740082E034DF909373008093720093
S113025084E02EDF909371008093700086E028DFA5
S1130260909377008093760080917400909175004C
S11302708CDF80E690E07ADF8091720090917300C9
S113028084DF80E690E072DF8091700090917100CD
S11302907CDF80E690E06ADF8091760090917700C1
S11302A02AEE8136920730F080E69AEE909377003A
S11302B08093760080917600909177008095909558
S11302C064DF80E690E052DF089580916A0049DFA0
S11302D090916A0080916A004091690021E08D301C
S11302E009F020E081E09A3009F080E0282B30E02A
S11302F081E090E0403211F080E090E0822393238B
S1130300009719F08BE62DDFE9C090916A00809187
S11303106A004091690021E08D3009F020E081E01D
S11303209A3009F080E0282B30E081E090E0403200
S113033011F480E090E082239323009709F455C0E0
S113034080916B0090916C0020DF8091690009DF3F
S113035080916900883759F0893720F4843609F090
S11303603FC032C0893791F08A37D1F51EC0609101
S11303706B0070916C0080E080DE80916B00909146
S11303806C0090937500809374002AC060916B0098
S113039070916C0082E071DE80916B0090916C0032
S11303A090937300809372001BC060916B007091F6
S11303B06C0084E062DE80916B0090916C009093FD
S11303C07100809370000CC060916B0070916C00A0
S11303D060957095709377006093760086E04DDEAB
S11303E010926C0010926B0076C04091690050919D
S11303F06A0060916A0070916A0080916A0021E04D
S113040030E0843611F020E030E081E090E07A378B
S113041011F080E090E0282B392B91E0693709F046
S113042090E081E0583709F080E0892B90E0822B3E
S1130430932B21E030E0403211F020E030E08223C1
S11304409323009719F080916A0046C04091690097
S113045050916900609169008091690021E030E069
S1130460843611F020E030E081E090E06A3711F04A
S113047080E090E0282B392B91E0593709F090E087
S113048081E0483709F080E0892B90E0822B932BA0
S1130490009709F180916A0090916A009A33F0F410
S11304A08033E0F080916B0090916C006AE070E022
S11304B06FD090936C0080936B0080916B0090914F
S11304C06C0020916A00C097820F911D90936C007C
S11304D080936B0003C080E28093690010926A00ED
S11304E0089583E08ABB8FED87BB82E781BB1BBA8B
S11304F080E188BB84E682BB15BE1BBE8AE18DB950
S113050080E48EB985E08EBD80E889BF12B889E1A8
S113051089B91BB888E98AB986E083B982E690E094
S113052025DE8ADE10926C0010926B0080E28093CC
S1130530690085B7806585BF789480917600909135
S113054077002AEE8036920710F080E69AEE9DBD81
S11305508CBDC0E480916D008823A1F087E690E013
S113056005DECBBF85B7806285BF889585B78F7D53
S113057085BF62DE80917600909177009DBD8CBD31
S113058010926D0080916A00882321F39EDEE2CFF1
S11305905527002480FF02C0060E571F660F771FE1
S11305A06115710521F096958795009799F7952F18
S11305B0802D0895AA1BBB1B51E107C0AA1FBB1FB6
S11305C0A617B70710F0A61BB70B881F991F5A95DB
S11305D0A9F780959095BC01CD010895F894FFCFBB
S10D05E02000706F6F70007A002095
S9030000FC
