:1000000014C0AFC0C5C02AC029C09CC027C0D7C07B
:1000100025C024C023C022C021C020C01FC01EC0D4
:100020001DC01CC01BC01AC019C011241FBECFEDBB
:10003000CDBF10E0A0E6B0E0ECECF5E002C005902A
:100040000D92AA36B107D9F710E0AAE6B0E001C0D8
:100050001D92A337B107E1F745D2B6C2D1CFCF93F6
:10006000C82F88B318BA8BE01BD18C2F19D18C2FD5
:1000700017D1C49ACF9108951F93CF93DF930F9216
:10008000CDB7DEB7182F88B318BA8AE0698308D1D4
:10009000812F06D16981862F03D1C49A0F90DF91F9
:1000A000CF911F91089580E260916C00E5DF83E2BB
:1000B00062E3E2DF85E26FE0DFDF87E26FEFDCDF44
:1000C0008AE260E9D9DF8DE26AE0D6DF0895209107
:1000D0006E0030916F003DBD2CBDE199FECF1CBA82
:1000E0008EBB6DBBE29AE19A0895CF93DF93C82F40
:1000F000D62F672FECDF8C2F8F5F6D2FE8DFDF911E
:10010000CF91089520916E0030916F003DBD2CBDC0
:10011000E199FECF8EBB8CB38F5F8CBB8DB30895FE
:100120001F93CF93DF93182FEDDFD82F80E0C82FD8
:10013000812F8F5FE7DF90E08C2B9D2BDF91CF919C
:100140001F9108951F920F920FB60F9211248F9353
:1001500081E080936B008F910F900FBE0F901F90E6
:1001600018951F920F920FB60F9211248F939F93A1
:1001700080916E0090916F009DBD8CBD10926B00C0
:100180001BBE9F918F910F900FBE0F901F901895DF
:100190001F920F920FB60F9211248F939F9380910D
:1001A0006E0090916F009DBD8CBD10926B001BBEC8
:1001B0009F918F910F900FBE0F901F9018951F92D7
:1001C0000F920FB60F9211248F939F9380916E0020
:1001D00090916F009DBD8CBD8CB180936A009F9102
:1001E0008F910F900FBE0F901F9018958CB95E9B4A
:1001F000FECF5E9A0895CF93DF93EC018991F6DFED
:1002000088818823D9F78AE0F1DF8DE0EFDFDF9185
:10021000CF9108950F931F93CF93DF939C0160E1DB
:1002200077E2BED1462F862F90E060EF78EDA6D121
:10023000280F391FC90168EE73E0B2D1862FC62F8F
:1002400090E068EE73E09AD1281B390BC90164E68F
:1002500070E0A6D1862FD62F90E064E670E08ED1B4
:10026000281B390BC9016AE070E09AD1062F182FBC
:10027000842F805DBBDF8C2F805DB8DF8D2F805D8C
:10028000B5DF802F805DB2DF812F805DAFDF8AE038
:10029000ADDF8DE0ABDFDF91CF911F910F9108951E
:1002A0008FB98BE101C08DB9769BFDCF80E48EB90B
:1002B0008FB10895949A089582B312BA089580E098
:1002C0002FDF90936D0080936C0082E029DF909384
:1002D0006F0080936E0080916C0090916D009ADFAA
:1002E00080916E0090916F002AEE8136920730F077
:1002F00080E69AEE90936F0080936E0080916E007E
:1003000090916F008095909585DF089586E990E043
:1003100090936D0080936C0088ED96ED90936F0044
:1003200080936E0080E066E970E0DFDE60916E0031
:1003300070916F0082E0D9DE8FE06AEAC8DE08952E
:10034000CF93C0916A0010926A008C2F4FDF21E09A
:10035000CD3009F020E081E0CA3009F080E0282BA0
:1003600030E08091690061E070E0803211F060E07F
:1003700070E0A901462357234115510509F0B0C08B
:1003800041E050E0803211F440E050E02423352376
:100390002115310509F43FC0823799F1833728F4DC
:1003A000823621F1843691F514C0843719F08737ED
:1003B00069F521C0609170007091710080E095DE58
:1003C000809170009091710090936D0080936C000B
:1003D0001DC0609170007091710060957095709370
:1003E0006F0060936E0082E080DE10C0809170002C
:1003F000809372000BC080917000609172003CDEAF
:1004000005C0809170002BDE90E004DF1092710037
:100410001092700062C021E030E0C73711F020E098
:1004200030E041E050E0C23611F040E050E0422BB5
:10043000532B21E030E0C23711F020E030E0422BB6
:10044000532B21E0C43609F020E091E0C43709F0D5
:1004500090E0292B30E0242B352B26233723211540
:10046000310519F0C09369003BC021E030E08237CC
:1004700011F020E030E041E050E0873711F040E03B
:1004800050E0422B532B21E030E0823611F020E087
:1004900030E0242B352B41E0843609F040E091E038
:1004A000843709F090E0942B892F90E0822B932BD6
:1004B000009799F08C2F80538A3090F480917000CF
:1004C000909171006AE070E059D08C0F911DC09737
:1004D000909371008093700003C080E28093690064
:1004E000CF91089583E08ABB8FED87BB82E781BB04
:1004F0001BBA80E188BB84E682BB15BE1BBE8AE1C5
:100500008DB980E48EB912B889E189B91BB888E940
:100510008AB986E083B985B7806585BF8FE0F2DD53
:100520008A3A09F0F3DECBDEBEDD85E08EBD809138
:100530006E0090916F009DBD8CBD80E889BFBADED2
:10054000789480E690E057DEC0EC80916B008823C1
:1005500079F087E690E04FDEA6DDCBBFADDE85B754
:10056000806285BF889585B78F7D85BFA8DEA2DEB6
:1005700080916A00882349F3E3DEE7CF5527002402
:1005800080FF02C0060E571F660F771F61157105A9
:1005900021F096958795009799F7952F802D0895CE
:1005A000AA1BBB1B51E107C0AA1FBB1FA617B70799
:1005B00010F0A61BB70B881F991F5A95A9F78095B5
:0C05C0009095BC01CD010895F894FFCF88
:0A05CC00526561647921007A002075
:00000001FF
