S015000057616B652D6F6E2D5368616B652E7372656364
S113000014C097C0C2C02AC029C084C027C0C7C0BA
S113001025C024C023C022C021C020C01FC01EC0D0
S11300201DC01CC01BC01AC019C011241FBECFEDB7
S1130030CDBF10E0A0E6B0E0ECEFF4E002C0059024
S11300400D92AC36B107D9F710E0ACE6B0E001C0D0
S11300501D92AA37B107E1F773D14EC2D1CFFC018B
S113006081918CB95E9BFECF5E9A80818823C1F713
S11300708AE08CB95E9BFECF5E9A8DE08CB95E9B64
S1130080FECF5E9A08958CB95E9BFECF5E9A08956A
S11300900F931F93CF93DF939C0160E177E2F5D137
S11300A0462F862F90E060EF78EDDDD1280F391FC1
S11300B0C90168EE73E0E9D1862FC62F90E068EE9F
S11300C073E0D1D1281B390BC90164E670E0DDD19E
S11300D0862FD62F90E064E670E0C5D1281B390B3B
S11300E0C9016AE070E0D1D1062F182F842F805DFA
S11300F0CADF8C2F805DC7DF8D2F805DC4DF802F2A
S1130100805DC1DF812F805DBEDFDF91CF911F91C4
S11301100F9108951F920F920FB60F9211248F938F
S113012081E080936F008F910F900FBE0F901F900E
S113013018951F920F920FB60F9211242F933F938D
S11301404F935F936F937F938F939F93AF93BF93DB
S1130150EF93FF9380E690E082DF809178009091A6
S113016079009DBD8CBD1BBEFF91EF91BF91AF91F6
S11301709F918F917F916F915F914F913F912F91BB
S11301800F900FBE0F901F9018951F920F920FB6ED
S11301900F9211240F900FBE0F901F9018951F926D
S11301A00F920FB60F9211242F933F934F935F93A7
S11301B06F937F938F939F93AF93BF93CF93EF935B
S11301C0FF93CCB18C2F5FDF40916E0021E0CD30E6
S11301D009F020E081E0CA3009F080E0282B30E00B
S11301E081E090E0442311F480E090E082239323A3
S11301F0009709F44BC082E690E031DF80916C00F7
S113020090916D0045DF85E690E029DF80916C00D8
S113021090916D000097A1F180916E00883751F0A4
S1130220893718F4843661F51AC0893751F08A3752
S113023039F50EC060916C0070916D0080E090E023
S11302401EC060916C0070916D0082E090E017C058
S113025060916C0070916D0084E090E010C080911A
S11302606C0090916D008095909590936D008093B3
S11302706C0060916C0070916D0086E090E01CD180
S113028010926D0010926C0010926E0080916E00BE
S11302908823C9F4C83751F0C93718F4C43681F437
S11302A00BC0C93729F0CA3759F404C081E005C02E
S11302B082E003C083E001C084E080936E0019C033
S11302C010926E0016C080916C0090916D006AE0EF
S11302D070E0C9D090936D0080936C0080916C00A5
S11302E090916D00C0978C0F911D90936D00809339
S11302F06C00FF91EF91CF91BF91AF919F918F913E
S11303007F916F915F914F913F912F910F900FBE0D
S11303100F901F9018958FB98BE101C08DB9769B12
S1130320FDCF80E48EB98FB10895C4988BE0F3DFDC
S113033080E0F1DF80E0EFDFC49A90E0A9DE089569
S113034083E08ABB8FED87BB82E781BB1BBA80E168
S113035088BB84E682BB15BE1BBE8AE18DB980E4EE
S11303608EB985E08EBD80E889BF80917800909138
S113037079009DBD8CBD12B889E189B91BB888E9A3
S11303808AB986E083B980E090E093D0EC01909341
S113039077008093760082E090E08BD09093750094
S11303A08093740084E090E084D0909373008093F1
S11303B0720086E090E07DD090937900809378007D
S11303C0CE0166DE85E690E04ADE8091740090916D
S11303D075005EDE85E690E042DE809172009091C9
S11303E0730056DE85E690E03ADE809178009091C5
S11303F0790022EF8133920730F080E392EF9093FB
S1130400790080937800809178009091790040DEA3
S113041010926D0010926C0010926E0085B78F7A66
S1130420806485BF789487E690E019DEC0E480910B
S11304306F008823E1F389E690E011DECBBF85B736
S1130440806285BF889585B78F7D85BF10927100C6
S11304501092700010926F00809178009091790052
S11304609DBD8CBDE4CF5527002480FF02C0060E3D
S1130470571F660F771F6115710521F096958795B3
S1130480009799F7952F802D0895AA1BBB1B51E166
S113049007C0AA1FBB1FA617B70710F0A61BB70BF0
S11304A0881F991F5A95A9F780959095BC01CD0195
S11304B00895A8E142E005C011D0272F10C0A82F4D
S11304C0862FE82FE199FECF1FBA05C0EEBBE09A54
S11304D0E3950DB20D924150C8F70895262FE19986
S11304E0FECF1CBA1FBA8EBB2DBB0FB6F894E29A8E
S10F04F0E19A0FBE01960895F894FFCF26
S10F04FC38000A0D00200021007A0000E6
S9030000FC
