:1000000014C005C31BC32AC029C0F2C227C02DC318
:1000100025C024C023C022C021C020C01FC01EC0D4
:100020001DC01CC01BC01AC019C011241FBECFEDBB
:10003000CDBF10E0A0E6B0E0EEEEF7E002C0059024
:100040000D92AC36B107D9F710E0ACE6B0E001C0D4
:100050001D92A337B107E1F735D0C7C3D1CF87E7EA
:100060009CEE909372008093710080E066E970E0EE
:1000700062D3609171007091720082E05CD384E081
:1000800062E370E058D386E06FE070E054D38FE70E
:100090006BE747D308950F931F9380E063D38C01E0
:1000A00082E060D39093720080937100C8014DD2BA
:1000B00080917100909172008095909546D21F9129
:1000C0000F9108951F9383E08ABB8FED87BB82E772
:1000D00081BB1BBA80E188BB85E682BB15BE1BBE17
:1000E0008AE18DB980E48EB912B889E189B91BB86B
:1000F00088E98AB986E083B985B7806585BF8FE7CF
:1001000027D38B3709F0ABDFC6DFE3D285E08EBDA6
:1001100080917100909172009DBD8CBD80E889BF77
:10012000949A789420D010EC80916C00813089F4FE
:1001300080E690E051D2CDD21BBF82B312BA85B710
:10014000806285BF889585B78F7D85BF0CD0A3DF82
:10015000949A80916D00882339F309D0E5CF82E627
:1001600090E03AD2089586E690E036D20895409124
:100170006D0010926D0080E04A3009F481E090E05B
:100180004D3009F491E0892B282F30E050916A001E
:1001900060E070E0503211F461E070E0C901862344
:1001A0009723892B09F0C0C180E090E0503211F014
:1001B00081E090E028233923232B09F458C05536D9
:1001C00009F440C0563640F4523669F1543689F08D
:1001D000553409F042C03CC0543729F0573741F13B
:1001E0005237D9F52BC060916F007091700080E09C
:1001F00018C080916F0090917000809590959093B9
:100200007200809371008053984F30F08FE298EF26
:1002100090937200809371006091710070917200F0
:1002200082E089D21AC080916F0080936E0015C061
:1002300080916F0060916E002FD20FC080916F008F
:100240003BD209C080916F0060916E006AD205C0F8
:1002500080916F007DD290E078D110927000109262
:100260006F0080E280936A0086E690E055C120E04E
:1002700030E0423611F421E030E080E090E04A378F
:1002800011F481E090E0282B392B80E090E0473793
:1002900011F481E090E0282B392B80E090E0423788
:1002A00011F481E090E0282B392B80E090E0453676
:1002B00011F481E090E0282B392B80E090E0453468
:1002C00011F481E090E0282B392B80E090E040375A
:1002D00011F481E090E0282B392B80E090E0483445
:1002E00011F481E090E0282B392B80E090E04C3431
:1002F00011F481E090E0282B392B80E0443709F499
:1003000081E090E0443609F491E0892B90E0282BBD
:10031000392B26233723232B69F040936A004A3771
:1003200009F002C18CED9FEF9DBD8CBD80E28093F2
:100330006A00089520E030E0523711F421E030E007
:1003400080E090E0573711F481E090E0282B392BC2
:1003500080E090E0553611F481E090E0282B392BB5
:1003600080E090E0553411F481E090E0282B392BA7
:1003700080E090E0503711F481E090E0282B392B99
:1003800080E090E0583411F481E090E0282B392B84
:1003900080E090E05C3411F481E090E0282B392B70
:1003A00080E090E0523611F481E090E0282B392B68
:1003B00080E0543709F481E090E0543609F491E08C
:1003C000892B90E0282B392B232B09F4A7C0503719
:1003D00009F045C080E280936A004233E1F0433384
:1003E00030F4403351F0413309F094C00BC0433333
:1003F000E9F0463309F08EC025C087B317BA86B33B
:1004000081702BC087B317BA86B390E0827090706A
:100410009595879522C087B317BA86B390E084700C
:100420009070959587959595879517C087B317BA5E
:1004300086B390E08870907033E0959587953A95F3
:10044000E1F70BC081B311BA80B390E08074907073
:1004500026E0959587952A95E1F767D00895583459
:1004600011F580E280936A004233A1F0433330F407
:10047000403351F0413309F04DC009C0433369F0B6
:10048000463309F047C00CC0B89AC09A0895B99A8B
:10049000C19A0895BA9AC29A0895BB9AC39A0895C8
:1004A0008E9A969A08955C34F9F480E280936A00FB
:1004B000423381F0433328F4403341F0413351F566
:1004C00007C0433349F0463329F50AC0B89A05C03E
:1004D000B99A03C0BA9A01C0BB9A88B318BA0895F2
:1004E0008E9A82B312BA0895842F80538A3078F49A
:1004F00080916F00909170006AE070E050D1840F9D
:10050000911DC0979093700080936F00089580E2D2
:1005100080936A0082E690E05FD0089580E2809345
:100520006A0082E690E058D008958CB95E9BFECFB9
:100530005E9A08958AE08CB95E9BFECF5E9A8DE04C
:100540008CB95E9BFECF5E9A08959C0160E177E2D4
:1005500038D1462F862F90E060EF78ED20D1280F1C
:10056000391FC90168EE73E02CD1F62F862F90E079
:1005700068EE73E014D1281B390BC90164E670E002
:1005800020D1E62F862F90E064E670E008D1281B8A
:10059000390B405D4CB95E9BFECF5E9AF05DFCB9B5
:1005A0005E9BFECF5E9AE05DECB95E9BFECF5E9AED
:1005B000C9016AE070E005D1605D6CB95E9BFECF59
:1005C0005E9AC9016AE070E0FCD0805D8CB95E9BE8
:1005D000FECF5E9AAFDF0895FC0180818CB95E9BEF
:1005E000FECF5E9A319680818823B9F7A3DF089504
:1005F0001F920F920FB60F9211248F9381E0809378
:100600006C008F910F900FBE0F901F9018951F9246
:100610000F920FB60F9211248F939F9380917100C8
:10062000909172009DBD8CBD10926C001BBE9F917D
:100630008F910F900FBE0F901F9018951F920F92E1
:100640000FB60F9211248F939F9380917100909118
:1006500072009DBD8CBD10926C001BBE9F918F914E
:100660000F900FBE0F901F9018951F920F920FB60C
:100670000F9211248F939F9380917100909172003B
:100680009DBD8CBD8CB180936D009F918F910F901B
:100690000FBE0F901F9018950F931F93182F062FC2
:1006A00088B318BA8AE071D0812F6FD0802F6DD0B7
:1006B000C49A1F910F9108951F93182F88B318BAE9
:1006C0008BE063D0812F61D0812F5FD0C49A1F91BE
:1006D000089580E03DD0682F81E2DEDF81E038D0F0
:1006E000682F80E2D9DF84E033D0682F84E2D4DF42
:1006F00085E02ED0682F83E2CFDF86E029D0682FF7
:1007000086E2CADF87E024D0682F85E2C5DF87E272
:100710006FEFC2DF8AE260E9BFDF8DE26AE0BCDF33
:100720000895F894E199FECF1CBA8EBB6DBBE29A96
:10073000E19A789408950F931F93182F062F672F2F
:10074000F0DF812F8F5F602FECDF1F910F910895F5
:10075000F894E199FECF8EBB8CB38F5F8CBB7894FD
:100760008DB30895FF920F931F93F82EF1DF182F8A
:1007700000E08F2D8F5FECDF282F30E0202B312B16
:10078000C9011F910F91FF9008958FB98BE101C0AE
:100790008DB9769BFDCF80E48EB98FB10895552732
:1007A000002480FF02C0060E571F660F771F6115D9
:1007B000710521F096958795009799F7952F802DD3
:1007C0000895AA1BBB1B51E107C0AA1FBB1FA61798
:1007D000B70710F0A61BB70B881F991F5A95A9F7EA
:0E07E00080959095BC01CD010895F894FFCF4F
:0C07EE007A003A2D28003A2D2900200046
:00000001FF
